{
    "_format": "hh-sol-artifact-1",
    "contractName": "SwapToAnyToken",
    "sourceName": "contracts/SwapToAnyToken.sol",
    "abi": [
        {
            "inputs": [
                {
                    "internalType": "address",
                    "name": "systemContractAddress",
                    "type": "address"
                }
            ],
            "stateMutability": "nonpayable",
            "type": "constructor"
        },
        {
            "inputs": [],
            "name": "CantBeIdenticalAddresses",
            "type": "error"
        },
        {
            "inputs": [],
            "name": "CantBeZeroAddress",
            "type": "error"
        },
        {
            "inputs": [],
            "name": "OffsetOutOfBounds",
            "type": "error"
        },
        {
            "inputs": [
                {
                    "internalType": "string",
                    "name": "",
                    "type": "string"
                }
            ],
            "name": "OnlySystemContract",
            "type": "error"
        },
        {
            "inputs": [
                {
                    "components": [
                        {
                            "internalType": "bytes",
                            "name": "origin",
                            "type": "bytes"
                        },
                        {
                            "internalType": "address",
                            "name": "sender",
                            "type": "address"
                        },
                        {
                            "internalType": "uint256",
                            "name": "chainID",
                            "type": "uint256"
                        }
                    ],
                    "internalType": "struct zContext",
                    "name": "context",
                    "type": "tuple"
                },
                {
                    "internalType": "address",
                    "name": "zrc20",
                    "type": "address"
                },
                {
                    "internalType": "uint256",
                    "name": "amount",
                    "type": "uint256"
                },
                {
                    "internalType": "bytes",
                    "name": "message",
                    "type": "bytes"
                }
            ],
            "name": "onCrossChainCall",
            "outputs": [],
            "stateMutability": "nonpayable",
            "type": "function"
        },
        {
            "inputs": [
                {
                    "internalType": "address",
                    "name": "inputToken",
                    "type": "address"
                },
                {
                    "internalType": "uint256",
                    "name": "amount",
                    "type": "uint256"
                },
                {
                    "internalType": "address",
                    "name": "targetToken",
                    "type": "address"
                },
                {
                    "internalType": "bytes",
                    "name": "recipient",
                    "type": "bytes"
                },
                {
                    "internalType": "bool",
                    "name": "withdraw",
                    "type": "bool"
                }
            ],
            "name": "swap",
            "outputs": [],
            "stateMutability": "nonpayable",
            "type": "function"
        },
        {
            "inputs": [],
            "name": "systemContract",
            "outputs": [
                {
                    "internalType": "contract SystemContract",
                    "name": "",
                    "type": "address"
                }
            ],
            "stateMutability": "view",
            "type": "function"
        },
        {
            "stateMutability": "payable",
            "type": "receive"
        }
    ],
    "bytecode": "0x60806040523480156200001157600080fd5b506040516200262b3803806200262b833981810160405281019062000037919062000095565b806000806101000a81548173ffffffffffffffffffffffffffffffffffffffff021916908373ffffffffffffffffffffffffffffffffffffffff160217905550506200011a565b6000815190506200008f8162000100565b92915050565b600060208284031215620000ae57620000ad620000fb565b5b6000620000be848285016200007e565b91505092915050565b6000620000d482620000db565b9050919050565b600073ffffffffffffffffffffffffffffffffffffffff82169050919050565b600080fd5b6200010b81620000c7565b81146200011757600080fd5b50565b612501806200012a6000396000f3fe6080604052600436106100385760003560e01c806374718c5814610044578063bb88b7691461006d578063de43156e146100985761003f565b3661003f57005b600080fd5b34801561005057600080fd5b5061006b600480360381019061006691906119fa565b6100c1565b005b34801561007957600080fd5b50610082610165565b60405161008f9190611e8e565b60405180910390f35b3480156100a457600080fd5b506100bf60048036038101906100ba9190611b07565b610189565b005b8473ffffffffffffffffffffffffffffffffffffffff166323b872dd3330876040518463ffffffff1660e01b81526004016100fe93929190611dfe565b602060405180830381600087803b15801561011857600080fd5b505af115801561012c573d6000803e3d6000fd5b505050506040513d601f19601f820116820180604052508101906101509190611ada565b5061015e85858585856103a1565b5050505050565b60008054906101000a900473ffffffffffffffffffffffffffffffffffffffff1681565b60008054906101000a900473ffffffffffffffffffffffffffffffffffffffff168073ffffffffffffffffffffffffffffffffffffffff163373ffffffffffffffffffffffffffffffffffffffff1614610218576040517f14c6658d00000000000000000000000000000000000000000000000000000000815260040161020f90611ea9565b60405180910390fd5b60006040518060600160405280600073ffffffffffffffffffffffffffffffffffffffff16815260200160405180602001604052806000815250815260200160011515815250905061479c876040013514156103105761027a8484600061081f565b816000019073ffffffffffffffffffffffffffffffffffffffff16908173ffffffffffffffffffffffffffffffffffffffff16815250506102bd8484601461081f565b6040516020016102cd9190611d5a565b60405160208183030381529060405281602001819052506029848490501061030b576102fb84846028610894565b8160400190151590811515815250505b61037f565b60008060008686810190610324919061194b565b92509250925082846000019073ffffffffffffffffffffffffffffffffffffffff16908173ffffffffffffffffffffffffffffffffffffffff1681525050818460200181905250808460400190151590811515815250505050505b61039886868360000151846020015185604001516103a1565b50505050505050565b60008060008315610461578573ffffffffffffffffffffffffffffffffffffffff1663d9eeebed6040518163ffffffff1660e01b8152600401604080518083038186803b1580156103f157600080fd5b505afa158015610405573d6000803e3d6000fd5b505050506040513d601f19601f8201168201806040525081019061042991906119ba565b809250819350505061045e60008054906101000a900473ffffffffffffffffffffffffffffffffffffffff168983858b610902565b92505b60006104a860008054906101000a900473ffffffffffffffffffffffffffffffffffffffff168a87610493578a6104a0565b868b61049f91906120d2565b5b8a6000610e9b565b905084156105d1578273ffffffffffffffffffffffffffffffffffffffff1663095ea7b388846040518363ffffffff1660e01b81526004016104eb929190611e35565b602060405180830381600087803b15801561050557600080fd5b505af1158015610519573d6000803e3d6000fd5b505050506040513d601f19601f8201168201806040525081019061053d9190611ada565b508673ffffffffffffffffffffffffffffffffffffffff1663c701262687836040518363ffffffff1660e01b8152600401610579929190611e5e565b602060405180830381600087803b15801561059357600080fd5b505af11580156105a7573d6000803e3d6000fd5b505050506040513d601f19601f820116820180604052508101906105cb9190611ada565b50610814565b60008060009054906101000a900473ffffffffffffffffffffffffffffffffffffffff1673ffffffffffffffffffffffffffffffffffffffff1663569541b96040518163ffffffff1660e01b815260040160206040518083038186803b15801561063a57600080fd5b505afa15801561064e573d6000803e3d6000fd5b505050506040513d601f19601f82011682018060405250810190610672919061191e565b90508073ffffffffffffffffffffffffffffffffffffffff168873ffffffffffffffffffffffffffffffffffffffff161415610771578073ffffffffffffffffffffffffffffffffffffffff16632e1a7d4d836040518263ffffffff1660e01b81526004016106e19190611ec9565b600060405180830381600087803b1580156106fb57600080fd5b505af115801561070f573d6000803e3d6000fd5b5050505060008761071f90612196565b60601c90508073ffffffffffffffffffffffffffffffffffffffff166108fc849081150290604051600060405180830381858888f1935050505015801561076a573d6000803e3d6000fd5b5050610812565b60008761077d90612196565b60601c90508873ffffffffffffffffffffffffffffffffffffffff1663a9059cbb82856040518363ffffffff1660e01b81526004016107bd929190611e35565b602060405180830381600087803b1580156107d757600080fd5b505af11580156107eb573d6000803e3d6000fd5b505050506040513d601f19601f8201168201806040525081019061080f9190611ada565b50505b505b505050505050505050565b60008084848490601486610833919061207c565b9261084093929190612041565b8080601f016020809104026020016040519081016040528093929190818152602001838380828437600081840152601f19601f82011690508083019250505050505050905060148101519150509392505050565b60008383905082106108d2576040517f9605a01000000000000000000000000000000000000000000000000000000000815260040160405180910390fd5b60008484848181106108e7576108e6612303565b5b9050013560f81c60f81b60f81c60ff16141590509392505050565b60008061098d8773ffffffffffffffffffffffffffffffffffffffff1663d936a0126040518163ffffffff1660e01b815260040160206040518083038186803b15801561094e57600080fd5b505afa158015610962573d6000803e3d6000fd5b505050506040513d601f19601f82011682018060405250810190610986919061191e565b8786611440565b905060608115610a8657600267ffffffffffffffff8111156109b2576109b1612332565b5b6040519080825280602002602001820160405280156109e05781602001602082028036833780820191505090505b50905086816000815181106109f8576109f7612303565b5b602002602001019073ffffffffffffffffffffffffffffffffffffffff16908173ffffffffffffffffffffffffffffffffffffffff16815250508481600181518110610a4757610a46612303565b5b602002602001019073ffffffffffffffffffffffffffffffffffffffff16908173ffffffffffffffffffffffffffffffffffffffff1681525050610c3d565b600367ffffffffffffffff811115610aa157610aa0612332565b5b604051908082528060200260200182016040528015610acf5781602001602082028036833780820191505090505b5090508681600081518110610ae757610ae6612303565b5b602002602001019073ffffffffffffffffffffffffffffffffffffffff16908173ffffffffffffffffffffffffffffffffffffffff16815250508773ffffffffffffffffffffffffffffffffffffffff1663569541b96040518163ffffffff1660e01b815260040160206040518083038186803b158015610b6757600080fd5b505afa158015610b7b573d6000803e3d6000fd5b505050506040513d601f19601f82011682018060405250810190610b9f919061191e565b81600181518110610bb357610bb2612303565b5b602002602001019073ffffffffffffffffffffffffffffffffffffffff16908173ffffffffffffffffffffffffffffffffffffffff16815250508481600281518110610c0257610c01612303565b5b602002602001019073ffffffffffffffffffffffffffffffffffffffff16908173ffffffffffffffffffffffffffffffffffffffff16815250505b8673ffffffffffffffffffffffffffffffffffffffff1663095ea7b38973ffffffffffffffffffffffffffffffffffffffff1663842da36d6040518163ffffffff1660e01b815260040160206040518083038186803b158015610c9f57600080fd5b505afa158015610cb3573d6000803e3d6000fd5b505050506040513d601f19601f82011682018060405250810190610cd7919061191e565b866040518363ffffffff1660e01b8152600401610cf5929190611e35565b602060405180830381600087803b158015610d0f57600080fd5b505af1158015610d23573d6000803e3d6000fd5b505050506040513d601f19601f82011682018060405250810190610d479190611ada565b5060008873ffffffffffffffffffffffffffffffffffffffff1663842da36d6040518163ffffffff1660e01b815260040160206040518083038186803b158015610d9057600080fd5b505afa158015610da4573d6000803e3d6000fd5b505050506040513d601f19601f82011682018060405250810190610dc8919061191e565b73ffffffffffffffffffffffffffffffffffffffff16638803dbee8887853060c861ffff1642610df8919061207c565b6040518663ffffffff1660e01b8152600401610e18959493929190611ee4565b600060405180830381600087803b158015610e3257600080fd5b505af1158015610e46573d6000803e3d6000fd5b505050506040513d6000823e3d601f19601f82011682018060405250810190610e6f9190611a91565b905080600081518110610e8557610e84612303565b5b6020026020010151935050505095945050505050565b600080610f268773ffffffffffffffffffffffffffffffffffffffff1663d936a0126040518163ffffffff1660e01b815260040160206040518083038186803b158015610ee757600080fd5b505afa158015610efb573d6000803e3d6000fd5b505050506040513d601f19601f82011682018060405250810190610f1f919061191e565b8786611440565b90506060811561101f57600267ffffffffffffffff811115610f4b57610f4a612332565b5b604051908082528060200260200182016040528015610f795781602001602082028036833780820191505090505b5090508681600081518110610f9157610f90612303565b5b602002602001019073ffffffffffffffffffffffffffffffffffffffff16908173ffffffffffffffffffffffffffffffffffffffff16815250508481600181518110610fe057610fdf612303565b5b602002602001019073ffffffffffffffffffffffffffffffffffffffff16908173ffffffffffffffffffffffffffffffffffffffff16815250506111d6565b600367ffffffffffffffff81111561103a57611039612332565b5b6040519080825280602002602001820160405280156110685781602001602082028036833780820191505090505b50905086816000815181106110805761107f612303565b5b602002602001019073ffffffffffffffffffffffffffffffffffffffff16908173ffffffffffffffffffffffffffffffffffffffff16815250508773ffffffffffffffffffffffffffffffffffffffff1663569541b96040518163ffffffff1660e01b815260040160206040518083038186803b15801561110057600080fd5b505afa158015611114573d6000803e3d6000fd5b505050506040513d601f19601f82011682018060405250810190611138919061191e565b8160018151811061114c5761114b612303565b5b602002602001019073ffffffffffffffffffffffffffffffffffffffff16908173ffffffffffffffffffffffffffffffffffffffff1681525050848160028151811061119b5761119a612303565b5b602002602001019073ffffffffffffffffffffffffffffffffffffffff16908173ffffffffffffffffffffffffffffffffffffffff16815250505b8673ffffffffffffffffffffffffffffffffffffffff1663095ea7b38973ffffffffffffffffffffffffffffffffffffffff1663842da36d6040518163ffffffff1660e01b815260040160206040518083038186803b15801561123857600080fd5b505afa15801561124c573d6000803e3d6000fd5b505050506040513d601f19601f82011682018060405250810190611270919061191e565b886040518363ffffffff1660e01b815260040161128e929190611e35565b602060405180830381600087803b1580156112a857600080fd5b505af11580156112bc573d6000803e3d6000fd5b505050506040513d601f19601f820116820180604052508101906112e09190611ada565b5060008873ffffffffffffffffffffffffffffffffffffffff1663842da36d6040518163ffffffff1660e01b815260040160206040518083038186803b15801561132957600080fd5b505afa15801561133d573d6000803e3d6000fd5b505050506040513d601f19601f82011682018060405250810190611361919061191e565b73ffffffffffffffffffffffffffffffffffffffff166338ed17398887853060c861ffff1642611391919061207c565b6040518663ffffffff1660e01b81526004016113b1959493929190611ee4565b600060405180830381600087803b1580156113cb57600080fd5b505af11580156113df573d6000803e3d6000fd5b505050506040513d6000823e3d601f19601f820116820180604052508101906114089190611a91565b9050806001835161141991906120d2565b8151811061142a57611429612303565b5b6020026020010151935050505095945050505050565b60008061144e85858561157a565b905060008473ffffffffffffffffffffffffffffffffffffffff166370a08231836040518263ffffffff1660e01b815260040161148b9190611de3565b60206040518083038186803b1580156114a357600080fd5b505afa1580156114b7573d6000803e3d6000fd5b505050506040513d601f19601f820116820180604052508101906114db9190611bab565b118015611570575060008373ffffffffffffffffffffffffffffffffffffffff166370a08231836040518263ffffffff1660e01b815260040161151e9190611de3565b60206040518083038186803b15801561153657600080fd5b505afa15801561154a573d6000803e3d6000fd5b505050506040513d601f19601f8201168201806040525081019061156e9190611bab565b115b9150509392505050565b600080600061158985856115ec565b915091508582826040516020016115a1929190611d75565b604051602081830303815290604052805190602001206040516020016115c8929190611da1565b6040516020818303038152906040528051906020012060001c925050509392505050565b6000808273ffffffffffffffffffffffffffffffffffffffff168473ffffffffffffffffffffffffffffffffffffffff161415611655576040517fcb1e7cfe00000000000000000000000000000000000000000000000000000000815260040160405180910390fd5b8273ffffffffffffffffffffffffffffffffffffffff168473ffffffffffffffffffffffffffffffffffffffff161061168f578284611692565b83835b8092508193505050600073ffffffffffffffffffffffffffffffffffffffff168273ffffffffffffffffffffffffffffffffffffffff161415611701576040517f78b507da00000000000000000000000000000000000000000000000000000000815260040160405180910390fd5b9250929050565b600061171b61171684611f63565b611f3e565b9050808382526020820190508285602086028201111561173e5761173d61238f565b5b60005b8581101561176e57816117548882611909565b845260208401935060208301925050600181019050611741565b5050509392505050565b600061178b61178684611f8f565b611f3e565b9050828152602081018484840111156117a7576117a6612394565b5b6117b2848285612233565b509392505050565b6000813590506117c98161246f565b92915050565b6000815190506117de8161246f565b92915050565b6000813590506117f381612486565b92915050565b600082601f83011261180e5761180d61237b565b5b815161181e848260208601611708565b91505092915050565b6000813590506118368161249d565b92915050565b60008151905061184b8161249d565b92915050565b60008083601f8401126118675761186661237b565b5b8235905067ffffffffffffffff81111561188457611883612376565b5b6020830191508360018202830111156118a05761189f61238f565b5b9250929050565b600082601f8301126118bc576118bb61237b565b5b81356118cc848260208601611778565b91505092915050565b6000606082840312156118eb576118ea612380565b5b81905092915050565b600081359050611903816124b4565b92915050565b600081519050611918816124b4565b92915050565b6000602082840312156119345761193361239e565b5b6000611942848285016117cf565b91505092915050565b6000806000606084860312156119645761196361239e565b5b6000611972868287016117e4565b935050602084013567ffffffffffffffff81111561199357611992612399565b5b61199f868287016118a7565b92505060406119b086828701611827565b9150509250925092565b600080604083850312156119d1576119d061239e565b5b60006119df858286016117cf565b92505060206119f085828601611909565b9150509250929050565b600080600080600060a08688031215611a1657611a1561239e565b5b6000611a24888289016117ba565b9550506020611a35888289016118f4565b9450506040611a46888289016117ba565b935050606086013567ffffffffffffffff811115611a6757611a66612399565b5b611a73888289016118a7565b9250506080611a8488828901611827565b9150509295509295909350565b600060208284031215611aa757611aa661239e565b5b600082015167ffffffffffffffff811115611ac557611ac4612399565b5b611ad1848285016117f9565b91505092915050565b600060208284031215611af057611aef61239e565b5b6000611afe8482850161183c565b91505092915050565b600080600080600060808688031215611b2357611b2261239e565b5b600086013567ffffffffffffffff811115611b4157611b40612399565b5b611b4d888289016118d5565b9550506020611b5e888289016117ba565b9450506040611b6f888289016118f4565b935050606086013567ffffffffffffffff811115611b9057611b8f612399565b5b611b9c88828901611851565b92509250509295509295909350565b600060208284031215611bc157611bc061239e565b5b6000611bcf84828501611909565b91505092915050565b6000611be48383611bf0565b60208301905092915050565b611bf981612106565b82525050565b611c0881612106565b82525050565b611c1f611c1a82612106565b6122a6565b82525050565b6000611c3082611fe0565b611c3a8185612003565b9350611c4583611fc0565b8060005b83811015611c76578151611c5d8882611bd8565b9750611c6883611ff6565b925050600181019050611c49565b5085935050505092915050565b611c94611c8f82612162565b6122b8565b82525050565b6000611ca582611feb565b611caf8185612014565b9350611cbf818560208601612242565b611cc8816123a3565b840191505092915050565b611cdc816121fd565b82525050565b6000611cef602b83612025565b9150611cfa826123ce565b604082019050919050565b6000611d12602083612036565b9150611d1d8261241d565b602082019050919050565b6000611d35600183612036565b9150611d4082612446565b600182019050919050565b611d548161218c565b82525050565b6000611d668284611c0e565b60148201915081905092915050565b6000611d818285611c0e565b601482019150611d918284611c0e565b6014820191508190509392505050565b6000611dac82611d28565b9150611db88285611c0e565b601482019150611dc88284611c83565b602082019150611dd782611d05565b91508190509392505050565b6000602082019050611df86000830184611bff565b92915050565b6000606082019050611e136000830186611bff565b611e206020830185611bff565b611e2d6040830184611d4b565b949350505050565b6000604082019050611e4a6000830185611bff565b611e576020830184611d4b565b9392505050565b60006040820190508181036000830152611e788185611c9a565b9050611e876020830184611d4b565b9392505050565b6000602082019050611ea36000830184611cd3565b92915050565b60006020820190508181036000830152611ec281611ce2565b9050919050565b6000602082019050611ede6000830184611d4b565b92915050565b600060a082019050611ef96000830188611d4b565b611f066020830187611d4b565b8181036040830152611f188186611c25565b9050611f276060830185611bff565b611f346080830184611d4b565b9695505050505050565b6000611f48611f59565b9050611f548282612275565b919050565b6000604051905090565b600067ffffffffffffffff821115611f7e57611f7d612332565b5b602082029050602081019050919050565b600067ffffffffffffffff821115611faa57611fa9612332565b5b611fb3826123a3565b9050602081019050919050565b6000819050602082019050919050565b6000819050602082019050919050565b600081519050919050565b600081519050919050565b6000602082019050919050565b600082825260208201905092915050565b600082825260208201905092915050565b600082825260208201905092915050565b600081905092915050565b600080858511156120555761205461238a565b5b8386111561206657612065612385565b5b6001850283019150848603905094509492505050565b60006120878261218c565b91506120928361218c565b9250827fffffffffffffffffffffffffffffffffffffffffffffffffffffffffffffffff038211156120c7576120c66122d4565b5b828201905092915050565b60006120dd8261218c565b91506120e88361218c565b9250828210156120fb576120fa6122d4565b5b828203905092915050565b60006121118261216c565b9050919050565b60006121238261216c565b9050919050565b60008115159050919050565b60007fffffffffffffffffffffffffffffffffffffffff00000000000000000000000082169050919050565b6000819050919050565b600073ffffffffffffffffffffffffffffffffffffffff82169050919050565b6000819050919050565b60006121a182611feb565b826121ab84611fd0565b90506121b681612361565b925060148210156121f6576121f17fffffffffffffffffffffffffffffffffffffffff000000000000000000000000836014036008026123c1565b831692505b5050919050565b60006122088261220f565b9050919050565b600061221a82612221565b9050919050565b600061222c8261216c565b9050919050565b82818337600083830152505050565b60005b83811015612260578082015181840152602081019050612245565b8381111561226f576000848401525b50505050565b61227e826123a3565b810181811067ffffffffffffffff8211171561229d5761229c612332565b5b80604052505050565b60006122b1826122c2565b9050919050565b6000819050919050565b60006122cd826123b4565b9050919050565b7f4e487b7100000000000000000000000000000000000000000000000000000000600052601160045260246000fd5b7f4e487b7100000000000000000000000000000000000000000000000000000000600052603260045260246000fd5b7f4e487b7100000000000000000000000000000000000000000000000000000000600052604160045260246000fd5b600061236d8251612136565b80915050919050565b600080fd5b600080fd5b600080fd5b600080fd5b600080fd5b600080fd5b600080fd5b600080fd5b600080fd5b6000601f19601f8301169050919050565b60008160601b9050919050565b600082821b905092915050565b7f4f6e6c792073797374656d20636f6e74726163742063616e2063616c6c20746860008201527f69732066756e6374696f6e000000000000000000000000000000000000000000602082015250565b7f96e8ac4277198ff8b6f785478aa9a39f403cb768dd02cbee326c3e7da348845f600082015250565b7fff00000000000000000000000000000000000000000000000000000000000000600082015250565b61247881612106565b811461248357600080fd5b50565b61248f81612118565b811461249a57600080fd5b50565b6124a68161212a565b81146124b157600080fd5b50565b6124bd8161218c565b81146124c857600080fd5b5056fea26469706673582212201e0bab29326fd4cc3c43dc0fd79cd763149dc12fc3bd86c8cb751d5da894a08264736f6c63430008070033",
    "linkReferences": {},
    "deployedLinkReferences": {}
}